{
  "contractName": "DDNS",
  "abi": [
    {
      "constant": true,
      "inputs": [
        {
          "name": "",
          "type": "address"
        },
        {
          "name": "",
          "type": "uint256"
        }
      ],
      "name": "receipts",
      "outputs": [
        {
          "name": "amountPaidWei",
          "type": "uint256"
        },
        {
          "name": "timestamp",
          "type": "uint256"
        },
        {
          "name": "expires",
          "type": "uint256"
        }
      ],
      "payable": false,
      "stateMutability": "view",
      "type": "function"
    },
    {
      "inputs": [],
      "payable": false,
      "stateMutability": "nonpayable",
      "type": "constructor"
    },
    {
      "payable": true,
      "stateMutability": "payable",
      "type": "fallback"
    },
    {
      "anonymous": false,
      "inputs": [
        {
          "indexed": true,
          "name": "by",
          "type": "address"
        },
        {
          "indexed": false,
          "name": "domain",
          "type": "bytes"
        }
      ],
      "name": "LogDomainRegistered",
      "type": "event"
    },
    {
      "anonymous": false,
      "inputs": [
        {
          "indexed": true,
          "name": "from",
          "type": "address"
        },
        {
          "indexed": false,
          "name": "to",
          "type": "address"
        },
        {
          "indexed": false,
          "name": "domain",
          "type": "bytes"
        }
      ],
      "name": "LogDomainTransfered",
      "type": "event"
    },
    {
      "anonymous": false,
      "inputs": [
        {
          "indexed": true,
          "name": "oldIp",
          "type": "bytes4"
        },
        {
          "indexed": true,
          "name": "newIp",
          "type": "bytes4"
        },
        {
          "indexed": false,
          "name": "domain",
          "type": "bytes"
        }
      ],
      "name": "LogDomainChangeIp",
      "type": "event"
    },
    {
      "anonymous": false,
      "inputs": [
        {
          "indexed": false,
          "name": "tokensAmmount",
          "type": "uint256"
        },
        {
          "indexed": false,
          "name": "date",
          "type": "uint256"
        }
      ],
      "name": "ContractTokensWithdrawn",
      "type": "event"
    },
    {
      "constant": false,
      "inputs": [
        {
          "name": "_domain",
          "type": "bytes"
        },
        {
          "name": "_ip",
          "type": "bytes4"
        }
      ],
      "name": "register",
      "outputs": [],
      "payable": true,
      "stateMutability": "payable",
      "type": "function"
    },
    {
      "constant": false,
      "inputs": [
        {
          "name": "_domain",
          "type": "bytes"
        },
        {
          "name": "_newIp",
          "type": "bytes4"
        }
      ],
      "name": "edit",
      "outputs": [],
      "payable": false,
      "stateMutability": "nonpayable",
      "type": "function"
    },
    {
      "constant": false,
      "inputs": [
        {
          "name": "_domain",
          "type": "bytes"
        },
        {
          "name": "_newOwner",
          "type": "address"
        }
      ],
      "name": "transferDomain",
      "outputs": [],
      "payable": false,
      "stateMutability": "nonpayable",
      "type": "function"
    },
    {
      "constant": true,
      "inputs": [
        {
          "name": "_domain",
          "type": "bytes"
        }
      ],
      "name": "getIP",
      "outputs": [
        {
          "name": "",
          "type": "bytes4"
        }
      ],
      "payable": false,
      "stateMutability": "view",
      "type": "function"
    },
    {
      "constant": true,
      "inputs": [],
      "name": "getContractOwner",
      "outputs": [
        {
          "name": "",
          "type": "address"
        }
      ],
      "payable": false,
      "stateMutability": "view",
      "type": "function"
    },
    {
      "constant": true,
      "inputs": [
        {
          "name": "_domain",
          "type": "bytes"
        }
      ],
      "name": "getDomainOwner",
      "outputs": [
        {
          "name": "",
          "type": "address"
        }
      ],
      "payable": false,
      "stateMutability": "view",
      "type": "function"
    },
    {
      "constant": false,
      "inputs": [],
      "name": "withdraw",
      "outputs": [],
      "payable": false,
      "stateMutability": "nonpayable",
      "type": "function"
    },
    {
      "constant": true,
      "inputs": [
        {
          "name": "_domain",
          "type": "bytes"
        }
      ],
      "name": "getPrice",
      "outputs": [
        {
          "name": "",
          "type": "uint256"
        }
      ],
      "payable": false,
      "stateMutability": "pure",
      "type": "function"
    },
    {
      "constant": true,
      "inputs": [
        {
          "name": "_domain",
          "type": "bytes"
        }
      ],
      "name": "getDomainStartsDate",
      "outputs": [
        {
          "name": "",
          "type": "uint256"
        }
      ],
      "payable": false,
      "stateMutability": "view",
      "type": "function"
    },
    {
      "constant": true,
      "inputs": [
        {
          "name": "_domain",
          "type": "bytes"
        }
      ],
      "name": "getDomainExpirationDate",
      "outputs": [
        {
          "name": "",
          "type": "uint256"
        }
      ],
      "payable": false,
      "stateMutability": "view",
      "type": "function"
    }
  ],
  "bytecode": "0x6060604052341561000f57600080fd5b33600360006101000a81548173ffffffffffffffffffffffffffffffffffffffff021916908373ffffffffffffffffffffffffffffffffffffffff1602179055506124968061005f6000396000f3006060604052600436106100af576000357c0100000000000000000000000000000000000000000000000000000000900463ffffffff1680631673f008146100b15780632abe8d95146101365780633ccfd60b146101a7578063442890d5146101bc5780636b4dd15814610211578063829139d3146102825780639df35ba7146102f3578063a08ad97d1461036f578063b21659f2146103d3578063efacd29414610482578063f2c79a59146104fc575b005b34156100bc57600080fd5b610134600480803590602001908201803590602001908080601f016020809104026020016040519081016040528093929190818152602001838380828437820191505050505050919080357bffffffffffffffffffffffffffffffffffffffffffffffffffffffff1916906020019091905050610599565b005b341561014157600080fd5b610191600480803590602001908201803590602001908080601f0160208091040260200160405190810160405280939291908181526020018383808284378201915050505050509190505061091a565b6040518082815260200191505060405180910390f35b34156101b257600080fd5b6101ba610a21565b005b34156101c757600080fd5b6101cf610b52565b604051808273ffffffffffffffffffffffffffffffffffffffff1673ffffffffffffffffffffffffffffffffffffffff16815260200191505060405180910390f35b341561021c57600080fd5b61026c600480803590602001908201803590602001908080601f01602080910402602001604051908101604052809392919081815260200183838082843782019150505050505091905050610b7c565b6040518082815260200191505060405180910390f35b341561028d57600080fd5b6102dd600480803590602001908201803590602001908080601f01602080910402602001604051908101604052809392919081815260200183838082843782019150505050505091905050610bf6565b6040518082815260200191505060405180910390f35b34156102fe57600080fd5b61036d600480803590602001908201803590602001908080601f0160208091040260200160405190810160405280939291908181526020018383808284378201915050505050509190803573ffffffffffffffffffffffffffffffffffffffff16906020019091905050610cfd565b005b341561037a57600080fd5b6103af600480803573ffffffffffffffffffffffffffffffffffffffff1690602001909190803590602001909190505061106e565b60405180848152602001838152602001828152602001935050505060405180910390f35b34156103de57600080fd5b61042e600480803590602001908201803590602001908080601f016020809104026020016040519081016040528093929190818152602001838380828437820191505050505050919050506110b4565b60405180827bffffffffffffffffffffffffffffffffffffffffffffffffffffffff19167bffffffffffffffffffffffffffffffffffffffffffffffffffffffff1916815260200191505060405180910390f35b6104fa600480803590602001908201803590602001908080601f016020809104026020016040519081016040528093929190818152602001838380828437820191505050505050919080357bffffffffffffffffffffffffffffffffffffffffffffffffffffffff19169060200190919050506111bb565b005b341561050757600080fd5b610557600480803590602001908201803590602001908080601f0160208091040260200160405190810160405280939291908181526020018383808284378201915050505050509190505061227b565b604051808273ffffffffffffffffffffffffffffffffffffffff1673ffffffffffffffffffffffffffffffffffffffff16815260200191505060405180910390f35b6000826001600001816040518082805190602001908083835b6020831015156105d757805182526020820191506020810190506020830392506105b2565b6001836020036101000a038019825116818451168082178552505050505050905001915050908152602001604051809103902060010160049054906101000a900473ffffffffffffffffffffffffffffffffffffffff1673ffffffffffffffffffffffffffffffffffffffff163373ffffffffffffffffffffffffffffffffffffffff1614151561066757600080fd5b6001600001846040518082805190602001908083835b6020831015156106a2578051825260208201915060208101905060208303925061067d565b6001836020036101000a038019825116818451168082178552505050505050905001915050908152602001604051809103902060010160009054906101000a90047c0100000000000000000000000000000000000000000000000000000000029150600173__DDNSRegisterer________________________63769bced2909186866040518463ffffffff167c01000000000000000000000000000000000000000000000000000000000281526004018084815260200180602001837bffffffffffffffffffffffffffffffffffffffffffffffffffffffff19167bffffffffffffffffffffffffffffffffffffffffffffffffffffffff19168152602001828103825284818151815260200191508051906020019080838360005b838110156107d95780820151818401526020810190506107be565b50505050905090810190601f1680156108065780820380516001836020036101000a031916815260200191505b5094505050505060006040518083038186803b151561082457600080fd5b6102c65a03f4151561083557600080fd5b505050827bffffffffffffffffffffffffffffffffffffffffffffffffffffffff1916827bffffffffffffffffffffffffffffffffffffffffffffffffffffffff19167f04b30c13eb96c3cfc8154e1826d8d8e3a14811796b2e9e3bb3894cba4e88d31a866040518080602001828103825283818151815260200191508051906020019080838360005b838110156108da5780820151818401526020810190506108bf565b50505050905090810190601f1680156109075780820380516001836020036101000a031916815260200191505b509250505060405180910390a350505050565b6000600173__DDNSRegisterer________________________637a0095bf9091846000604051602001526040518363ffffffff167c01000000000000000000000000000000000000000000000000000000000281526004018083815260200180602001828103825283818151815260200191508051906020019080838360005b838110156109b557808201518184015260208101905061099a565b50505050905090810190601f1680156109e25780820380516001836020036101000a031916815260200191505b50935050505060206040518083038186803b15156109ff57600080fd5b6102c65a03f41515610a1057600080fd5b505050604051805190509050919050565b600360009054906101000a900473ffffffffffffffffffffffffffffffffffffffff1673ffffffffffffffffffffffffffffffffffffffff163373ffffffffffffffffffffffffffffffffffffffff16141515610a7d57600080fd5b60003073ffffffffffffffffffffffffffffffffffffffff1631111515610aa357600080fd5b7f84a97ff32bcffbc2cd446ecd6f4920e91b02d558498c996739063a3f3d1c73bb3073ffffffffffffffffffffffffffffffffffffffff163142604051808381526020018281526020019250505060405180910390a13373ffffffffffffffffffffffffffffffffffffffff166108fc3073ffffffffffffffffffffffffffffffffffffffff16319081150290604051600060405180830381858888f193505050501515610b5057600080fd5b565b6000600360009054906101000a900473ffffffffffffffffffffffffffffffffffffffff16905090565b600080670de0b6b3a76400009050600583511415610ba457674563918244f400009050610bed565b82516005108015610bb75750600a835111155b15610bcc57671bc16d674ec800009050610bec565b600a83511115610be657670de0b6b3a76400009050610beb565b600080fd5b5b5b80915050919050565b6000600173__DDNSRegisterer________________________637d781bb09091846000604051602001526040518363ffffffff167c01000000000000000000000000000000000000000000000000000000000281526004018083815260200180602001828103825283818151815260200191508051906020019080838360005b83811015610c91578082015181840152602081019050610c76565b50505050905090810190601f168015610cbe5780820380516001836020036101000a031916815260200191505b50935050505060206040518083038186803b1515610cdb57600080fd5b6102c65a03f41515610cec57600080fd5b505050604051805190509050919050565b6000826001600001816040518082805190602001908083835b602083101515610d3b5780518252602082019150602081019050602083039250610d16565b6001836020036101000a038019825116818451168082178552505050505050905001915050908152602001604051809103902060010160049054906101000a900473ffffffffffffffffffffffffffffffffffffffff1673ffffffffffffffffffffffffffffffffffffffff163373ffffffffffffffffffffffffffffffffffffffff16141515610dcb57600080fd5b6001600001846040518082805190602001908083835b602083101515610e065780518252602082019150602081019050602083039250610de1565b6001836020036101000a038019825116818451168082178552505050505050905001915050908152602001604051809103902060010160049054906101000a900473ffffffffffffffffffffffffffffffffffffffff169150600173__DDNSRegisterer________________________636ba00960909186866040518463ffffffff167c010000000000000000000000000000000000000000000000000000000002815260040180848152602001806020018373ffffffffffffffffffffffffffffffffffffffff1673ffffffffffffffffffffffffffffffffffffffff168152602001828103825284818151815260200191508051906020019080838360005b83811015610f22578082015181840152602081019050610f07565b50505050905090810190601f168015610f4f5780820380516001836020036101000a031916815260200191505b5094505050505060006040518083038186803b1515610f6d57600080fd5b6102c65a03f41515610f7e57600080fd5b5050508173ffffffffffffffffffffffffffffffffffffffff167f33745aab458697174af11f509a8de79535b16ca675ba58940be66cf7e48fdf768486604051808373ffffffffffffffffffffffffffffffffffffffff1673ffffffffffffffffffffffffffffffffffffffff16815260200180602001828103825283818151815260200191508051906020019080838360005b8381101561102d578082015181840152602081019050611012565b50505050905090810190601f16801561105a5780820380516001836020036101000a031916815260200191505b50935050505060405180910390a250505050565b60006020528160005260406000208181548110151561108957fe5b9060005260206000209060030201600091509150508060000154908060010154908060020154905083565b6000600173__DDNSRegisterer________________________63a9c73ab29091846000604051602001526040518363ffffffff167c01000000000000000000000000000000000000000000000000000000000281526004018083815260200180602001828103825283818151815260200191508051906020019080838360005b8381101561114f578082015181840152602081019050611134565b50505050905090810190601f16801561117c5780820380516001836020036101000a031916815260200191505b50935050505060206040518083038186803b151561119957600080fd5b6102c65a03f415156111aa57600080fd5b505050604051805190509050919050565b6111c3612382565b826111cc612382565b6001600001826040518082805190602001908083835b60208310151561120757805182526020820191506020810190506020830392506111e2565b6001836020036101000a038019825116818451168082178552505050505050905001915050908152602001604051809103902060a06040519081016040529081600082018054600181600116156101000203166002900480601f0160208091040260200160405190810160405280929190818152602001828054600181600116156101000203166002900480156112df5780601f106112b4576101008083540402835291602001916112df565b820191906000526020600020905b8154815290600101906020018083116112c257829003601f168201915b505050505081526020016001820160009054906101000a90047c0100000000000000000000000000000000000000000000000000000000027bffffffffffffffffffffffffffffffffffffffffffffffffffffffff19167bffffffffffffffffffffffffffffffffffffffffffffffffffffffff191681526020016001820160049054906101000a900473ffffffffffffffffffffffffffffffffffffffff1673ffffffffffffffffffffffffffffffffffffffff1673ffffffffffffffffffffffffffffffffffffffff168152602001600282015481526020016003820154815250509050806040015173ffffffffffffffffffffffffffffffffffffffff163373ffffffffffffffffffffffffffffffffffffffff161415156114205742816080015110151561141057600080fd5b42816060015110151561141f57fe5b5b8460008060008061143085610b7c565b93506000925083341415611ac05789600581511015151561145057600080fd5b60016000018b6040518082805190602001908083835b60208310151561148b5780518252602082019150602081019050602083039250611466565b6001836020036101000a038019825116818451168082178552505050505050905001915050908152602001604051809103902060a06040519081016040529081600082018054600181600116156101000203166002900480601f0160208091040260200160405190810160405280929190818152602001828054600181600116156101000203166002900480156115635780601f1061153857610100808354040283529160200191611563565b820191906000526020600020905b81548152906001019060200180831161154657829003601f168201915b505050505081526020016001820160009054906101000a90047c0100000000000000000000000000000000000000000000000000000000027bffffffffffffffffffffffffffffffffffffffffffffffffffffffff19167bffffffffffffffffffffffffffffffffffffffffffffffffffffffff191681526020016001820160049054906101000a900473ffffffffffffffffffffffffffffffffffffffff1673ffffffffffffffffffffffffffffffffffffffff1673ffffffffffffffffffffffffffffffffffffffff1681526020016002820154815260200160038201548152505098503373ffffffffffffffffffffffffffffffffffffffff16896040015173ffffffffffffffffffffffffffffffffffffffff1614801561168b5750428960800151115b156118ab57600173__DDNSRegisterer________________________63eccb8f5e90918d8d8d606001516301e133808f60800151016000604051602001526040518663ffffffff167c01000000000000000000000000000000000000000000000000000000000281526004018086815260200180602001857bffffffffffffffffffffffffffffffffffffffffffffffffffffffff19167bffffffffffffffffffffffffffffffffffffffffffffffffffffffff19168152602001848152602001838152602001828103825286818151815260200191508051906020019080838360005b8381101561178a57808201518184015260208101905061176f565b50505050905090810190601f1680156117b75780820380516001836020036101000a031916815260200191505b50965050505050505060206040518083038186803b15156117d757600080fd5b6102c65a03f415156117e857600080fd5b50505060405180519050503373ffffffffffffffffffffffffffffffffffffffff167fe11989a9bab5a246a6f3a806d477d66ba2938f1a9516c0e60ec573dc313781638c6040518080602001828103825283818151815260200191508051906020019080838360005b8381101561186c578082015181840152602081019050611851565b50505050905090810190601f1680156118995780820380516001836020036101000a031916815260200191505b509250505060405180910390a2611aba565b600173__DDNSRegisterer________________________63eccb8f5e90918d8d426301e1338042016000604051602001526040518663ffffffff167c01000000000000000000000000000000000000000000000000000000000281526004018086815260200180602001857bffffffffffffffffffffffffffffffffffffffffffffffffffffffff19167bffffffffffffffffffffffffffffffffffffffffffffffffffffffff19168152602001848152602001838152602001828103825286818151815260200191508051906020019080838360005b8381101561199d578082015181840152602081019050611982565b50505050905090810190601f1680156119ca5780820380516001836020036101000a031916815260200191505b50965050505050505060206040518083038186803b15156119ea57600080fd5b6102c65a03f415156119fb57600080fd5b50505060405180519050503373ffffffffffffffffffffffffffffffffffffffff167fe11989a9bab5a246a6f3a806d477d66ba2938f1a9516c0e60ec573dc313781638c6040518080602001828103825283818151815260200191508051906020019080838360005b83811015611a7f578082015181840152602081019050611a64565b50505050905090810190601f168015611aac5780820380516001836020036101000a031916815260200191505b509250505060405180910390a25b5061219c565b83341015611acd57600080fd5b8334039250600083111515611ade57fe5b3373ffffffffffffffffffffffffffffffffffffffff166108fc849081150290604051600060405180830381858888f193505050501515611b1e57600080fd5b896005815110151515611b3057600080fd5b60016000018b6040518082805190602001908083835b602083101515611b6b5780518252602082019150602081019050602083039250611b46565b6001836020036101000a038019825116818451168082178552505050505050905001915050908152602001604051809103902060a06040519081016040529081600082018054600181600116156101000203166002900480601f016020809104026020016040519081016040528092919081815260200182805460018160011615610100020316600290048015611c435780601f10611c1857610100808354040283529160200191611c43565b820191906000526020600020905b815481529060010190602001808311611c2657829003601f168201915b505050505081526020016001820160009054906101000a90047c0100000000000000000000000000000000000000000000000000000000027bffffffffffffffffffffffffffffffffffffffffffffffffffffffff19167bffffffffffffffffffffffffffffffffffffffffffffffffffffffff191681526020016001820160049054906101000a900473ffffffffffffffffffffffffffffffffffffffff1673ffffffffffffffffffffffffffffffffffffffff1673ffffffffffffffffffffffffffffffffffffffff1681526020016002820154815260200160038201548152505098503373ffffffffffffffffffffffffffffffffffffffff16896040015173ffffffffffffffffffffffffffffffffffffffff16148015611d6b5750428960800151115b15611f8b57600173__DDNSRegisterer________________________63eccb8f5e90918d8d8d606001516301e133808f60800151016000604051602001526040518663ffffffff167c01000000000000000000000000000000000000000000000000000000000281526004018086815260200180602001857bffffffffffffffffffffffffffffffffffffffffffffffffffffffff19167bffffffffffffffffffffffffffffffffffffffffffffffffffffffff19168152602001848152602001838152602001828103825286818151815260200191508051906020019080838360005b83811015611e6a578082015181840152602081019050611e4f565b50505050905090810190601f168015611e975780820380516001836020036101000a031916815260200191505b50965050505050505060206040518083038186803b1515611eb757600080fd5b6102c65a03f41515611ec857600080fd5b50505060405180519050503373ffffffffffffffffffffffffffffffffffffffff167fe11989a9bab5a246a6f3a806d477d66ba2938f1a9516c0e60ec573dc313781638c6040518080602001828103825283818151815260200191508051906020019080838360005b83811015611f4c578082015181840152602081019050611f31565b50505050905090810190601f168015611f795780820380516001836020036101000a031916815260200191505b509250505060405180910390a261219a565b600173__DDNSRegisterer________________________63eccb8f5e90918d8d426301e1338042016000604051602001526040518663ffffffff167c01000000000000000000000000000000000000000000000000000000000281526004018086815260200180602001857bffffffffffffffffffffffffffffffffffffffffffffffffffffffff19167bffffffffffffffffffffffffffffffffffffffffffffffffffffffff19168152602001848152602001838152602001828103825286818151815260200191508051906020019080838360005b8381101561207d578082015181840152602081019050612062565b50505050905090810190601f1680156120aa5780820380516001836020036101000a031916815260200191505b50965050505050505060206040518083038186803b15156120ca57600080fd5b6102c65a03f415156120db57600080fd5b50505060405180519050503373ffffffffffffffffffffffffffffffffffffffff167fe11989a9bab5a246a6f3a806d477d66ba2938f1a9516c0e60ec573dc313781638c6040518080602001828103825283818151815260200191508051906020019080838360005b8381101561215f578082015181840152602081019050612144565b50505050905090810190601f16801561218c5780820380516001836020036101000a031916815260200191505b509250505060405180910390a25b505b82340391506301e13380420190506000821115156121b657fe5b42811180156121c55750600081115b15156121cd57fe5b6000803373ffffffffffffffffffffffffffffffffffffffff1673ffffffffffffffffffffffffffffffffffffffff168152602001908152602001600020805480600101828161221d91906123ed565b9160005260206000209060030201600060606040519081016040528086815260200142815260200185815250909190915060008201518160000155602082015181600101556040820151816002015550505050505050505050505050565b6000600173__DDNSRegisterer________________________63878646f69091846000604051602001526040518363ffffffff167c01000000000000000000000000000000000000000000000000000000000281526004018083815260200180602001828103825283818151815260200191508051906020019080838360005b838110156123165780820151818401526020810190506122fb565b50505050905090810190601f1680156123435780820380516001836020036101000a031916815260200191505b50935050505060206040518083038186803b151561236057600080fd5b6102c65a03f4151561237157600080fd5b505050604051805190509050919050565b60a06040519081016040528061239661241f565b815260200160007bffffffffffffffffffffffffffffffffffffffffffffffffffffffff19168152602001600073ffffffffffffffffffffffffffffffffffffffff16815260200160008152602001600081525090565b81548183558181151161241a576003028160030283600052602060002091820191016124199190612433565b5b505050565b602060405190810160405280600081525090565b61246791905b80821115612463576000808201600090556001820160009055600282016000905550600301612439565b5090565b905600a165627a7a72305820678316b8515022532299e1248d3843b6c0ead59ec90fe0a7e3d5419eefe033620029",
  "source": "pragma solidity 0.4.19;\n\nimport \"./DDNSRegisterer.sol\";\nimport \"./DDNSInterface.sol\";\n\ncontract DDNS is DDNSInterface {\n    using DDNSRegisterer for DDNSRegisterer.DomainsData;\n    \n    DDNSRegisterer.DomainsData domains;\n    \n    event LogDomainRegistered (address indexed by, bytes domain);\n    event LogDomainTransfered (address indexed from, address to, bytes  domain);\n    event LogDomainChangeIp (bytes4 indexed oldIp, bytes4 indexed newIp, bytes domain);\n    event ContractTokensWithdrawn (uint tokensAmmount, uint date);\n    \n    modifier AvailableToBuy (bytes _domain) {\n        DDNSRegisterer.Domain memory domainData = domains.domainsInfo[_domain];\n        if(msg.sender != domainData.owner){\n            require(domainData.expires < now);\n            assert(domainData.starts < now);\n        }\n        _;                     \n    }\n    \n    modifier PaymentHandler (bytes _domain) {\n        uint cost = getPrice(_domain);\n        uint difference = 0;\n        if(msg.value == cost){\n            _;\n        } else if( msg.value < cost){\n            revert();   \n        } else {\n            difference = msg.value - cost;\n            assert(difference > 0);\n            msg.sender.transfer(difference);\n            _;\n        }\n        \n        uint amountPaidWei = msg.value - difference;\n        uint expires = now + 1 years;\n        \n        assert(amountPaidWei > 0);\n        assert(expires> now && expires > 0);\n        receipts[msg.sender].push(Receipt({amountPaidWei: amountPaidWei, timestamp: now, expires: expires}));\n    }\n    \n    modifier DomainNameRequirements (bytes _domain) {\n        require(_domain.length >= 5);\n        _;\n    }\n    \n    modifier OnlyDomainOwner (bytes _domain) {\n        require(msg.sender == domains.domainsInfo[_domain].owner);\n        _;\n    }\n    \n    modifier OnlyContractOwner () {\n        require(msg.sender == contractOwner);\n        _;\n    }\n    \n    address contractOwner;\n    \n    function DDNS() public {\n        contractOwner = msg.sender;\n    }\n    \n    function()public payable { //fallback function\n    }\n    \n    function register( bytes _domain, bytes4 _ip) public payable AvailableToBuy(_domain) PaymentHandler(_domain) DomainNameRequirements(_domain) {\n        DDNSRegisterer.Domain memory domainObj = domains.domainsInfo[_domain];\n        \n        // bool owned = domainObj.owner == msg.sender;\n        // bool domainStillActive = domainObj.expires > now;\n        \n        if(domainObj.owner == msg.sender && domainObj.expires > now){\n            domains.register(_domain, _ip, domainObj.starts,  domainObj.expires + 1 years);\n            LogDomainRegistered (msg.sender, _domain);\n            return;\n        }\n        \n        domains.register(_domain, _ip, now, now + 1 years);\n        LogDomainRegistered (msg.sender, _domain);\n    }\n    \n    function edit(bytes _domain, bytes4 _newIp) public OnlyDomainOwner(_domain) {\n        bytes4 oldIp = domains.domainsInfo[_domain].ip;\n        \n        domains.edit(_domain,_newIp);\n        \n        LogDomainChangeIp(oldIp, _newIp, _domain);\n    }\n    \n    function transferDomain(bytes _domain, address _newOwner) public OnlyDomainOwner(_domain) {\n        address oldOwner = domains.domainsInfo[_domain].owner;\n        \n        domains.transferDomain(_domain, _newOwner);\n        \n        LogDomainTransfered(oldOwner, _newOwner, _domain);\n    }\n    \n    function getIP(bytes _domain) public view returns (bytes4) {\n        return domains.getIP(_domain);\n    }\n\n    function getContractOwner() public view returns(address){\n        return contractOwner;\n    }\n    \n    function getDomainOwner(bytes _domain) public view returns(address) {\n        return domains.getDomainOwner(_domain);\n    }\n    \n    function withdraw() public OnlyContractOwner {\n        require(address(this).balance > 0);\n        ContractTokensWithdrawn(address(this).balance, now);\n        msg.sender.transfer(address(this).balance);\n    }\n    \n    function getPrice(bytes _domain) public pure returns (uint) {\n        uint price = 1 ether;\n        if(_domain.length == 5){\n            price = 5 ether;\n        } else if(5 < _domain.length && _domain.length <= 10){\n            price = 2 ether;\n        } else if(_domain.length > 10){\n            price = 1 ether;\n        } \n        else {\n            revert();\n        }\n        return price;\n    }\n\n    function getDomainStartsDate(bytes _domain) public view returns(uint){\n        return domains.getDomainStartsDate(_domain);\n    }\n    \n    function getDomainExpirationDate(bytes _domain) public view returns(uint){\n        return domains.getDomainExpirationDate(_domain);\n    }\n    \n    // function getOwnerDomains(address _owner) public view returns(DDNSRegisterer.Domain[]){\n    //     return domains.ownersInfo[_owner];\n    // }\n\n    // function geteDomainInfo(bytes _domain) public view returns(DDNSRegisterer.Domain) {\n    //     return domains.domainsInfo[_domain];\n    // }\n    \n    // function getAllReciepts() public view returns(Receipt[]){\n    //     return receipts[msg.sender];\n    // }\n}\n",
  "sourcePath": "C:\\Users\\grozd\\Desktop\\SOLIDITY\\solidiy truffle\\DDNS\\contracts\\DDNS.sol",
  "compiler": {
    "name": "solc",
    "version": "0.4.19+commit.c4cbbb05.Emscripten.clang"
  },
  "schemaVersion": "2.0.0",
  "updatedAt": "2018-03-25T23:40:25.733Z"
}