{
  "contractName": "DDNS",
  "abi": [
    {
      "constant": true,
      "inputs": [
        {
          "name": "",
          "type": "address"
        },
        {
          "name": "",
          "type": "uint256"
        }
      ],
      "name": "receipts",
      "outputs": [
        {
          "name": "amountPaidWei",
          "type": "uint256"
        },
        {
          "name": "timestamp",
          "type": "uint256"
        },
        {
          "name": "expires",
          "type": "uint256"
        }
      ],
      "payable": false,
      "stateMutability": "view",
      "type": "function"
    },
    {
      "constant": true,
      "inputs": [],
      "name": "contractOwner",
      "outputs": [
        {
          "name": "",
          "type": "address"
        }
      ],
      "payable": false,
      "stateMutability": "view",
      "type": "function"
    },
    {
      "constant": false,
      "inputs": [
        {
          "name": "newOwner",
          "type": "address"
        }
      ],
      "name": "transferOwnership",
      "outputs": [],
      "payable": false,
      "stateMutability": "nonpayable",
      "type": "function"
    },
    {
      "inputs": [],
      "payable": false,
      "stateMutability": "nonpayable",
      "type": "constructor"
    },
    {
      "payable": true,
      "stateMutability": "payable",
      "type": "fallback"
    },
    {
      "anonymous": false,
      "inputs": [
        {
          "indexed": true,
          "name": "by",
          "type": "address"
        },
        {
          "indexed": false,
          "name": "domain",
          "type": "bytes"
        }
      ],
      "name": "LogDomainRegistered",
      "type": "event"
    },
    {
      "anonymous": false,
      "inputs": [
        {
          "indexed": true,
          "name": "from",
          "type": "address"
        },
        {
          "indexed": false,
          "name": "to",
          "type": "address"
        },
        {
          "indexed": false,
          "name": "domain",
          "type": "bytes"
        }
      ],
      "name": "LogDomainTransfered",
      "type": "event"
    },
    {
      "anonymous": false,
      "inputs": [
        {
          "indexed": true,
          "name": "oldIp",
          "type": "bytes4"
        },
        {
          "indexed": true,
          "name": "newIp",
          "type": "bytes4"
        },
        {
          "indexed": false,
          "name": "domain",
          "type": "bytes"
        }
      ],
      "name": "LogDomainChangeIp",
      "type": "event"
    },
    {
      "anonymous": false,
      "inputs": [
        {
          "indexed": false,
          "name": "tokensAmmount",
          "type": "uint256"
        },
        {
          "indexed": false,
          "name": "date",
          "type": "uint256"
        }
      ],
      "name": "LogContractTokensWithdrawn",
      "type": "event"
    },
    {
      "anonymous": false,
      "inputs": [
        {
          "indexed": false,
          "name": "by",
          "type": "address"
        },
        {
          "indexed": false,
          "name": "tokensTransRecieved",
          "type": "uint256"
        }
      ],
      "name": "LogFallbackCalled",
      "type": "event"
    },
    {
      "anonymous": false,
      "inputs": [
        {
          "indexed": true,
          "name": "previousOwner",
          "type": "address"
        },
        {
          "indexed": true,
          "name": "newOwner",
          "type": "address"
        }
      ],
      "name": "OwnershipTransferred",
      "type": "event"
    },
    {
      "constant": false,
      "inputs": [
        {
          "name": "_domain",
          "type": "bytes"
        },
        {
          "name": "_ip",
          "type": "bytes4"
        }
      ],
      "name": "register",
      "outputs": [],
      "payable": true,
      "stateMutability": "payable",
      "type": "function"
    },
    {
      "constant": false,
      "inputs": [
        {
          "name": "_domain",
          "type": "bytes"
        },
        {
          "name": "_newIp",
          "type": "bytes4"
        }
      ],
      "name": "edit",
      "outputs": [],
      "payable": false,
      "stateMutability": "nonpayable",
      "type": "function"
    },
    {
      "constant": false,
      "inputs": [
        {
          "name": "_domain",
          "type": "bytes"
        },
        {
          "name": "_newOwner",
          "type": "address"
        }
      ],
      "name": "transferDomain",
      "outputs": [],
      "payable": false,
      "stateMutability": "nonpayable",
      "type": "function"
    },
    {
      "constant": true,
      "inputs": [
        {
          "name": "_domain",
          "type": "bytes"
        }
      ],
      "name": "getIP",
      "outputs": [
        {
          "name": "",
          "type": "bytes4"
        }
      ],
      "payable": false,
      "stateMutability": "view",
      "type": "function"
    },
    {
      "constant": true,
      "inputs": [],
      "name": "getContractOwner",
      "outputs": [
        {
          "name": "",
          "type": "address"
        }
      ],
      "payable": false,
      "stateMutability": "view",
      "type": "function"
    },
    {
      "constant": true,
      "inputs": [
        {
          "name": "_domain",
          "type": "bytes"
        }
      ],
      "name": "getDomainOwner",
      "outputs": [
        {
          "name": "",
          "type": "address"
        }
      ],
      "payable": false,
      "stateMutability": "view",
      "type": "function"
    },
    {
      "constant": false,
      "inputs": [],
      "name": "withdraw",
      "outputs": [],
      "payable": false,
      "stateMutability": "nonpayable",
      "type": "function"
    },
    {
      "constant": true,
      "inputs": [
        {
          "name": "_domain",
          "type": "bytes"
        }
      ],
      "name": "getPrice",
      "outputs": [
        {
          "name": "",
          "type": "uint256"
        }
      ],
      "payable": false,
      "stateMutability": "pure",
      "type": "function"
    },
    {
      "constant": true,
      "inputs": [
        {
          "name": "_domain",
          "type": "bytes"
        }
      ],
      "name": "getDomainStartsDate",
      "outputs": [
        {
          "name": "",
          "type": "uint256"
        }
      ],
      "payable": false,
      "stateMutability": "view",
      "type": "function"
    },
    {
      "constant": true,
      "inputs": [
        {
          "name": "_domain",
          "type": "bytes"
        }
      ],
      "name": "getDomainExpirationDate",
      "outputs": [
        {
          "name": "",
          "type": "uint256"
        }
      ],
      "payable": false,
      "stateMutability": "view",
      "type": "function"
    }
  ],
  "bytecode": "0x6060604052341561000f57600080fd5b33600160006101000a81548173ffffffffffffffffffffffffffffffffffffffff021916908373ffffffffffffffffffffffffffffffffffffffff16021790555033600160006101000a81548173ffffffffffffffffffffffffffffffffffffffff021916908373ffffffffffffffffffffffffffffffffffffffff160217905550612723806100a06000396000f3006060604052600436106100c5576000357c0100000000000000000000000000000000000000000000000000000000900463ffffffff1680631673f008146101325780632abe8d95146101b75780633ccfd60b14610228578063442890d51461023d5780636b4dd15814610292578063829139d3146103035780639df35ba714610374578063a08ad97d146103f0578063b21659f214610454578063ce606ee014610503578063efacd29414610558578063f2c79a59146105d2578063f2fde38b1461066f575b7f7dd94a36bff3d977edfb1df03547850793cd3b5f69859e0396b195fe95b50e133334604051808373ffffffffffffffffffffffffffffffffffffffff1673ffffffffffffffffffffffffffffffffffffffff1681526020018281526020019250505060405180910390a1005b341561013d57600080fd5b6101b5600480803590602001908201803590602001908080601f016020809104026020016040519081016040528093929190818152602001838380828437820191505050505050919080357bffffffffffffffffffffffffffffffffffffffffffffffffffffffff19169060200190919050506106a8565b005b34156101c257600080fd5b610212600480803590602001908201803590602001908080601f01602080910402602001604051908101604052809392919081815260200183838082843782019150505050505091905050610a29565b6040518082815260200191505060405180910390f35b341561023357600080fd5b61023b610b30565b005b341561024857600080fd5b610250610c61565b604051808273ffffffffffffffffffffffffffffffffffffffff1673ffffffffffffffffffffffffffffffffffffffff16815260200191505060405180910390f35b341561029d57600080fd5b6102ed600480803590602001908201803590602001908080601f01602080910402602001604051908101604052809392919081815260200183838082843782019150505050505091905050610c8b565b6040518082815260200191505060405180910390f35b341561030e57600080fd5b61035e600480803590602001908201803590602001908080601f01602080910402602001604051908101604052809392919081815260200183838082843782019150505050505091905050610d05565b6040518082815260200191505060405180910390f35b341561037f57600080fd5b6103ee600480803590602001908201803590602001908080601f0160208091040260200160405190810160405280939291908181526020018383808284378201915050505050509190803573ffffffffffffffffffffffffffffffffffffffff16906020019091905050610e0c565b005b34156103fb57600080fd5b610430600480803573ffffffffffffffffffffffffffffffffffffffff1690602001909190803590602001909190505061117d565b60405180848152602001838152602001828152602001935050505060405180910390f35b341561045f57600080fd5b6104af600480803590602001908201803590602001908080601f016020809104026020016040519081016040528093929190818152602001838380828437820191505050505050919050506111c3565b60405180827bffffffffffffffffffffffffffffffffffffffffffffffffffffffff19167bffffffffffffffffffffffffffffffffffffffffffffffffffffffff1916815260200191505060405180910390f35b341561050e57600080fd5b6105166112ca565b604051808273ffffffffffffffffffffffffffffffffffffffff1673ffffffffffffffffffffffffffffffffffffffff16815260200191505060405180910390f35b6105d0600480803590602001908201803590602001908080601f016020809104026020016040519081016040528093929190818152602001838380828437820191505050505050919080357bffffffffffffffffffffffffffffffffffffffffffffffffffffffff19169060200190919050506112f0565b005b34156105dd57600080fd5b61062d600480803590602001908201803590602001908080601f016020809104026020016040519081016040528093929190818152602001838380828437820191505050505050919050506123b0565b604051808273ffffffffffffffffffffffffffffffffffffffff1673ffffffffffffffffffffffffffffffffffffffff16815260200191505060405180910390f35b341561067a57600080fd5b6106a6600480803573ffffffffffffffffffffffffffffffffffffffff169060200190919050506124b7565b005b6000826002600001816040518082805190602001908083835b6020831015156106e657805182526020820191506020810190506020830392506106c1565b6001836020036101000a038019825116818451168082178552505050505050905001915050908152602001604051809103902060010160049054906101000a900473ffffffffffffffffffffffffffffffffffffffff1673ffffffffffffffffffffffffffffffffffffffff163373ffffffffffffffffffffffffffffffffffffffff1614151561077657600080fd5b6002600001846040518082805190602001908083835b6020831015156107b1578051825260208201915060208101905060208303925061078c565b6001836020036101000a038019825116818451168082178552505050505050905001915050908152602001604051809103902060010160009054906101000a90047c0100000000000000000000000000000000000000000000000000000000029150600273__DDNSRegisterer________________________63769bced2909186866040518463ffffffff167c01000000000000000000000000000000000000000000000000000000000281526004018084815260200180602001837bffffffffffffffffffffffffffffffffffffffffffffffffffffffff19167bffffffffffffffffffffffffffffffffffffffffffffffffffffffff19168152602001828103825284818151815260200191508051906020019080838360005b838110156108e85780820151818401526020810190506108cd565b50505050905090810190601f1680156109155780820380516001836020036101000a031916815260200191505b5094505050505060006040518083038186803b151561093357600080fd5b6102c65a03f4151561094457600080fd5b505050827bffffffffffffffffffffffffffffffffffffffffffffffffffffffff1916827bffffffffffffffffffffffffffffffffffffffffffffffffffffffff19167f04b30c13eb96c3cfc8154e1826d8d8e3a14811796b2e9e3bb3894cba4e88d31a866040518080602001828103825283818151815260200191508051906020019080838360005b838110156109e95780820151818401526020810190506109ce565b50505050905090810190601f168015610a165780820380516001836020036101000a031916815260200191505b509250505060405180910390a350505050565b6000600273__DDNSRegisterer________________________637a0095bf9091846000604051602001526040518363ffffffff167c01000000000000000000000000000000000000000000000000000000000281526004018083815260200180602001828103825283818151815260200191508051906020019080838360005b83811015610ac4578082015181840152602081019050610aa9565b50505050905090810190601f168015610af15780820380516001836020036101000a031916815260200191505b50935050505060206040518083038186803b1515610b0e57600080fd5b6102c65a03f41515610b1f57600080fd5b505050604051805190509050919050565b600160009054906101000a900473ffffffffffffffffffffffffffffffffffffffff1673ffffffffffffffffffffffffffffffffffffffff163373ffffffffffffffffffffffffffffffffffffffff16141515610b8c57600080fd5b60003073ffffffffffffffffffffffffffffffffffffffff1631111515610bb257600080fd5b7f889a28cc0bd1c6a1ff5d57a70c40fa27bd91e62685c4368173d37b427ea668d23073ffffffffffffffffffffffffffffffffffffffff163142604051808381526020018281526020019250505060405180910390a13373ffffffffffffffffffffffffffffffffffffffff166108fc3073ffffffffffffffffffffffffffffffffffffffff16319081150290604051600060405180830381858888f193505050501515610c5f57600080fd5b565b6000600160009054906101000a900473ffffffffffffffffffffffffffffffffffffffff16905090565b600080670de0b6b3a76400009050600583511415610cb357674563918244f400009050610cfc565b82516005108015610cc65750600a835111155b15610cdb57671bc16d674ec800009050610cfb565b600a83511115610cf557670de0b6b3a76400009050610cfa565b600080fd5b5b5b80915050919050565b6000600273__DDNSRegisterer________________________637d781bb09091846000604051602001526040518363ffffffff167c01000000000000000000000000000000000000000000000000000000000281526004018083815260200180602001828103825283818151815260200191508051906020019080838360005b83811015610da0578082015181840152602081019050610d85565b50505050905090810190601f168015610dcd5780820380516001836020036101000a031916815260200191505b50935050505060206040518083038186803b1515610dea57600080fd5b6102c65a03f41515610dfb57600080fd5b505050604051805190509050919050565b6000826002600001816040518082805190602001908083835b602083101515610e4a5780518252602082019150602081019050602083039250610e25565b6001836020036101000a038019825116818451168082178552505050505050905001915050908152602001604051809103902060010160049054906101000a900473ffffffffffffffffffffffffffffffffffffffff1673ffffffffffffffffffffffffffffffffffffffff163373ffffffffffffffffffffffffffffffffffffffff16141515610eda57600080fd5b6002600001846040518082805190602001908083835b602083101515610f155780518252602082019150602081019050602083039250610ef0565b6001836020036101000a038019825116818451168082178552505050505050905001915050908152602001604051809103902060010160049054906101000a900473ffffffffffffffffffffffffffffffffffffffff169150600273__DDNSRegisterer________________________636ba00960909186866040518463ffffffff167c010000000000000000000000000000000000000000000000000000000002815260040180848152602001806020018373ffffffffffffffffffffffffffffffffffffffff1673ffffffffffffffffffffffffffffffffffffffff168152602001828103825284818151815260200191508051906020019080838360005b83811015611031578082015181840152602081019050611016565b50505050905090810190601f16801561105e5780820380516001836020036101000a031916815260200191505b5094505050505060006040518083038186803b151561107c57600080fd5b6102c65a03f4151561108d57600080fd5b5050508173ffffffffffffffffffffffffffffffffffffffff167f33745aab458697174af11f509a8de79535b16ca675ba58940be66cf7e48fdf768486604051808373ffffffffffffffffffffffffffffffffffffffff1673ffffffffffffffffffffffffffffffffffffffff16815260200180602001828103825283818151815260200191508051906020019080838360005b8381101561113c578082015181840152602081019050611121565b50505050905090810190601f1680156111695780820380516001836020036101000a031916815260200191505b50935050505060405180910390a250505050565b60006020528160005260406000208181548110151561119857fe5b9060005260206000209060030201600091509150508060000154908060010154908060020154905083565b6000600273__DDNSRegisterer________________________63a9c73ab29091846000604051602001526040518363ffffffff167c01000000000000000000000000000000000000000000000000000000000281526004018083815260200180602001828103825283818151815260200191508051906020019080838360005b8381101561125e578082015181840152602081019050611243565b50505050905090810190601f16801561128b5780820380516001836020036101000a031916815260200191505b50935050505060206040518083038186803b15156112a857600080fd5b6102c65a03f415156112b957600080fd5b505050604051805190509050919050565b600160009054906101000a900473ffffffffffffffffffffffffffffffffffffffff1681565b6112f861260f565b8261130161260f565b6002600001826040518082805190602001908083835b60208310151561133c5780518252602082019150602081019050602083039250611317565b6001836020036101000a038019825116818451168082178552505050505050905001915050908152602001604051809103902060a06040519081016040529081600082018054600181600116156101000203166002900480601f0160208091040260200160405190810160405280929190818152602001828054600181600116156101000203166002900480156114145780601f106113e957610100808354040283529160200191611414565b820191906000526020600020905b8154815290600101906020018083116113f757829003601f168201915b505050505081526020016001820160009054906101000a90047c0100000000000000000000000000000000000000000000000000000000027bffffffffffffffffffffffffffffffffffffffffffffffffffffffff19167bffffffffffffffffffffffffffffffffffffffffffffffffffffffff191681526020016001820160049054906101000a900473ffffffffffffffffffffffffffffffffffffffff1673ffffffffffffffffffffffffffffffffffffffff1673ffffffffffffffffffffffffffffffffffffffff168152602001600282015481526020016003820154815250509050806040015173ffffffffffffffffffffffffffffffffffffffff163373ffffffffffffffffffffffffffffffffffffffff161415156115555742816080015110151561154557600080fd5b42816060015110151561155457fe5b5b8460008060008061156585610c8b565b93506000925083341415611bf55789600581511015151561158557600080fd5b60026000018b6040518082805190602001908083835b6020831015156115c0578051825260208201915060208101905060208303925061159b565b6001836020036101000a038019825116818451168082178552505050505050905001915050908152602001604051809103902060a06040519081016040529081600082018054600181600116156101000203166002900480601f0160208091040260200160405190810160405280929190818152602001828054600181600116156101000203166002900480156116985780601f1061166d57610100808354040283529160200191611698565b820191906000526020600020905b81548152906001019060200180831161167b57829003601f168201915b505050505081526020016001820160009054906101000a90047c0100000000000000000000000000000000000000000000000000000000027bffffffffffffffffffffffffffffffffffffffffffffffffffffffff19167bffffffffffffffffffffffffffffffffffffffffffffffffffffffff191681526020016001820160049054906101000a900473ffffffffffffffffffffffffffffffffffffffff1673ffffffffffffffffffffffffffffffffffffffff1673ffffffffffffffffffffffffffffffffffffffff1681526020016002820154815260200160038201548152505098503373ffffffffffffffffffffffffffffffffffffffff16896040015173ffffffffffffffffffffffffffffffffffffffff161480156117c05750428960800151115b156119e057600273__DDNSRegisterer________________________63eccb8f5e90918d8d8d606001516301e133808f60800151016000604051602001526040518663ffffffff167c01000000000000000000000000000000000000000000000000000000000281526004018086815260200180602001857bffffffffffffffffffffffffffffffffffffffffffffffffffffffff19167bffffffffffffffffffffffffffffffffffffffffffffffffffffffff19168152602001848152602001838152602001828103825286818151815260200191508051906020019080838360005b838110156118bf5780820151818401526020810190506118a4565b50505050905090810190601f1680156118ec5780820380516001836020036101000a031916815260200191505b50965050505050505060206040518083038186803b151561190c57600080fd5b6102c65a03f4151561191d57600080fd5b50505060405180519050503373ffffffffffffffffffffffffffffffffffffffff167fe11989a9bab5a246a6f3a806d477d66ba2938f1a9516c0e60ec573dc313781638c6040518080602001828103825283818151815260200191508051906020019080838360005b838110156119a1578082015181840152602081019050611986565b50505050905090810190601f1680156119ce5780820380516001836020036101000a031916815260200191505b509250505060405180910390a2611bef565b600273__DDNSRegisterer________________________63eccb8f5e90918d8d426301e1338042016000604051602001526040518663ffffffff167c01000000000000000000000000000000000000000000000000000000000281526004018086815260200180602001857bffffffffffffffffffffffffffffffffffffffffffffffffffffffff19167bffffffffffffffffffffffffffffffffffffffffffffffffffffffff19168152602001848152602001838152602001828103825286818151815260200191508051906020019080838360005b83811015611ad2578082015181840152602081019050611ab7565b50505050905090810190601f168015611aff5780820380516001836020036101000a031916815260200191505b50965050505050505060206040518083038186803b1515611b1f57600080fd5b6102c65a03f41515611b3057600080fd5b50505060405180519050503373ffffffffffffffffffffffffffffffffffffffff167fe11989a9bab5a246a6f3a806d477d66ba2938f1a9516c0e60ec573dc313781638c6040518080602001828103825283818151815260200191508051906020019080838360005b83811015611bb4578082015181840152602081019050611b99565b50505050905090810190601f168015611be15780820380516001836020036101000a031916815260200191505b509250505060405180910390a25b506122d1565b83341015611c0257600080fd5b8334039250600083111515611c1357fe5b3373ffffffffffffffffffffffffffffffffffffffff166108fc849081150290604051600060405180830381858888f193505050501515611c5357600080fd5b896005815110151515611c6557600080fd5b60026000018b6040518082805190602001908083835b602083101515611ca05780518252602082019150602081019050602083039250611c7b565b6001836020036101000a038019825116818451168082178552505050505050905001915050908152602001604051809103902060a06040519081016040529081600082018054600181600116156101000203166002900480601f016020809104026020016040519081016040528092919081815260200182805460018160011615610100020316600290048015611d785780601f10611d4d57610100808354040283529160200191611d78565b820191906000526020600020905b815481529060010190602001808311611d5b57829003601f168201915b505050505081526020016001820160009054906101000a90047c0100000000000000000000000000000000000000000000000000000000027bffffffffffffffffffffffffffffffffffffffffffffffffffffffff19167bffffffffffffffffffffffffffffffffffffffffffffffffffffffff191681526020016001820160049054906101000a900473ffffffffffffffffffffffffffffffffffffffff1673ffffffffffffffffffffffffffffffffffffffff1673ffffffffffffffffffffffffffffffffffffffff1681526020016002820154815260200160038201548152505098503373ffffffffffffffffffffffffffffffffffffffff16896040015173ffffffffffffffffffffffffffffffffffffffff16148015611ea05750428960800151115b156120c057600273__DDNSRegisterer________________________63eccb8f5e90918d8d8d606001516301e133808f60800151016000604051602001526040518663ffffffff167c01000000000000000000000000000000000000000000000000000000000281526004018086815260200180602001857bffffffffffffffffffffffffffffffffffffffffffffffffffffffff19167bffffffffffffffffffffffffffffffffffffffffffffffffffffffff19168152602001848152602001838152602001828103825286818151815260200191508051906020019080838360005b83811015611f9f578082015181840152602081019050611f84565b50505050905090810190601f168015611fcc5780820380516001836020036101000a031916815260200191505b50965050505050505060206040518083038186803b1515611fec57600080fd5b6102c65a03f41515611ffd57600080fd5b50505060405180519050503373ffffffffffffffffffffffffffffffffffffffff167fe11989a9bab5a246a6f3a806d477d66ba2938f1a9516c0e60ec573dc313781638c6040518080602001828103825283818151815260200191508051906020019080838360005b83811015612081578082015181840152602081019050612066565b50505050905090810190601f1680156120ae5780820380516001836020036101000a031916815260200191505b509250505060405180910390a26122cf565b600273__DDNSRegisterer________________________63eccb8f5e90918d8d426301e1338042016000604051602001526040518663ffffffff167c01000000000000000000000000000000000000000000000000000000000281526004018086815260200180602001857bffffffffffffffffffffffffffffffffffffffffffffffffffffffff19167bffffffffffffffffffffffffffffffffffffffffffffffffffffffff19168152602001848152602001838152602001828103825286818151815260200191508051906020019080838360005b838110156121b2578082015181840152602081019050612197565b50505050905090810190601f1680156121df5780820380516001836020036101000a031916815260200191505b50965050505050505060206040518083038186803b15156121ff57600080fd5b6102c65a03f4151561221057600080fd5b50505060405180519050503373ffffffffffffffffffffffffffffffffffffffff167fe11989a9bab5a246a6f3a806d477d66ba2938f1a9516c0e60ec573dc313781638c6040518080602001828103825283818151815260200191508051906020019080838360005b83811015612294578082015181840152602081019050612279565b50505050905090810190601f1680156122c15780820380516001836020036101000a031916815260200191505b509250505060405180910390a25b505b82340391506301e13380420190506000821115156122eb57fe5b42811180156122fa5750600081115b151561230257fe5b6000803373ffffffffffffffffffffffffffffffffffffffff1673ffffffffffffffffffffffffffffffffffffffff1681526020019081526020016000208054806001018281612352919061267a565b9160005260206000209060030201600060606040519081016040528086815260200142815260200185815250909190915060008201518160000155602082015181600101556040820151816002015550505050505050505050505050565b6000600273__DDNSRegisterer________________________63878646f69091846000604051602001526040518363ffffffff167c01000000000000000000000000000000000000000000000000000000000281526004018083815260200180602001828103825283818151815260200191508051906020019080838360005b8381101561244b578082015181840152602081019050612430565b50505050905090810190601f1680156124785780820380516001836020036101000a031916815260200191505b50935050505060206040518083038186803b151561249557600080fd5b6102c65a03f415156124a657600080fd5b505050604051805190509050919050565b600160009054906101000a900473ffffffffffffffffffffffffffffffffffffffff1673ffffffffffffffffffffffffffffffffffffffff163373ffffffffffffffffffffffffffffffffffffffff1614151561251357600080fd5b600073ffffffffffffffffffffffffffffffffffffffff168173ffffffffffffffffffffffffffffffffffffffff161415151561254f57600080fd5b8073ffffffffffffffffffffffffffffffffffffffff16600160009054906101000a900473ffffffffffffffffffffffffffffffffffffffff1673ffffffffffffffffffffffffffffffffffffffff167f8be0079c531659141344cd1fd0a4f28419497f9722a3daafe3b4186f6b6457e060405160405180910390a380600160006101000a81548173ffffffffffffffffffffffffffffffffffffffff021916908373ffffffffffffffffffffffffffffffffffffffff16021790555050565b60a0604051908101604052806126236126ac565b815260200160007bffffffffffffffffffffffffffffffffffffffffffffffffffffffff19168152602001600073ffffffffffffffffffffffffffffffffffffffff16815260200160008152602001600081525090565b8154818355818115116126a7576003028160030283600052602060002091820191016126a691906126c0565b5b505050565b602060405190810160405280600081525090565b6126f491905b808211156126f05760008082016000905560018201600090556002820160009055506003016126c6565b5090565b905600a165627a7a72305820af8b8e7b2950baba860604c531da4016a84b4bced3c386861667b9af1e1416db0029",
  "source": "pragma solidity 0.4.19;\r\n\r\nimport \"./DDNSRegisterer.sol\";\r\nimport \"./DDNSInterface.sol\";\r\nimport \"./Ownable.sol\";\r\n\r\ncontract DDNS is DDNSInterface, Ownable {\r\n    using DDNSRegisterer for DDNSRegisterer.DomainsData;\r\n    \r\n    DDNSRegisterer.DomainsData domains;\r\n    \r\n    event LogDomainRegistered (address indexed by, bytes domain);\r\n    event LogDomainTransfered (address indexed from, address to, bytes  domain);\r\n    event LogDomainChangeIp (bytes4 indexed oldIp, bytes4 indexed newIp, bytes domain);\r\n    event LogContractTokensWithdrawn (uint tokensAmmount, uint date);\r\n    event LogFallbackCalled (address by, uint tokensTransRecieved);\r\n    \r\n    modifier AvailableToBuy (bytes _domain) {\r\n        DDNSRegisterer.Domain memory domainData = domains.domainsInfo[_domain];\r\n        if(msg.sender != domainData.owner){\r\n            require(domainData.expires < now);\r\n            assert(domainData.starts < now);\r\n        }\r\n        _;                     \r\n    }\r\n    \r\n    modifier PaymentHandler (bytes _domain) {\r\n        uint cost = getPrice(_domain);\r\n        uint difference = 0;\r\n        if(msg.value == cost){\r\n            _;\r\n        } else if( msg.value < cost){\r\n            revert();   \r\n        } else {\r\n            difference = msg.value - cost;\r\n            assert(difference > 0);\r\n            msg.sender.transfer(difference);\r\n            _;\r\n        }\r\n        \r\n        uint amountPaidWei = msg.value - difference;\r\n        uint expires = now + 1 years;\r\n        \r\n        assert(amountPaidWei > 0);\r\n        assert(expires> now && expires > 0);\r\n        receipts[msg.sender].push(Receipt({amountPaidWei: amountPaidWei, timestamp: now, expires: expires}));\r\n    }\r\n    \r\n    modifier DomainNameRequirements (bytes _domain) {\r\n        require(_domain.length >= 5);\r\n        _;\r\n    }\r\n    \r\n    modifier OnlyDomainOwner (bytes _domain) {\r\n        require(msg.sender == domains.domainsInfo[_domain].owner);\r\n        _;\r\n    }\r\n    \r\n    function DDNS() public {\r\n        contractOwner = msg.sender;\r\n    }\r\n    \r\n    function()public payable { //fallback function\r\n        LogFallbackCalled(msg.sender, msg.value);\r\n    }\r\n    \r\n    function register( bytes _domain, bytes4 _ip) public payable AvailableToBuy(_domain) PaymentHandler(_domain) DomainNameRequirements(_domain) {\r\n        DDNSRegisterer.Domain memory domainObj = domains.domainsInfo[_domain];\r\n        \r\n        if(domainObj.owner == msg.sender && domainObj.expires > now){\r\n            domains.register(_domain, _ip, domainObj.starts,  domainObj.expires + 1 years);\r\n            LogDomainRegistered (msg.sender, _domain);\r\n            return;\r\n        }\r\n        \r\n        domains.register(_domain, _ip, now, now + 1 years);\r\n        LogDomainRegistered (msg.sender, _domain);\r\n    }\r\n    \r\n    function edit(bytes _domain, bytes4 _newIp) public OnlyDomainOwner(_domain) {\r\n        bytes4 oldIp = domains.domainsInfo[_domain].ip;\r\n        \r\n        domains.edit(_domain,_newIp);\r\n        \r\n        LogDomainChangeIp(oldIp, _newIp, _domain);\r\n    }\r\n    \r\n    function transferDomain(bytes _domain, address _newOwner) public OnlyDomainOwner(_domain) {\r\n        address oldOwner = domains.domainsInfo[_domain].owner;\r\n        \r\n        domains.transferDomain(_domain, _newOwner);\r\n        \r\n        LogDomainTransfered(oldOwner, _newOwner, _domain);\r\n    }\r\n    \r\n    function getIP(bytes _domain) public view returns (bytes4) {\r\n        return domains.getIP(_domain);\r\n    }\r\n\r\n    function getContractOwner() public view returns(address){\r\n        return contractOwner;\r\n    }\r\n    \r\n    function getDomainOwner(bytes _domain) public view returns(address) {\r\n        return domains.getDomainOwner(_domain);\r\n    }\r\n    \r\n    function withdraw() public OnlyContractOwner {\r\n        require(address(this).balance > 0);\r\n        LogContractTokensWithdrawn(address(this).balance, now);\r\n        msg.sender.transfer(address(this).balance);\r\n    }\r\n    \r\n    function getPrice(bytes _domain) public pure returns (uint) {\r\n        uint price = 1 ether;\r\n        if(_domain.length == 5){\r\n            price = 5 ether;\r\n        } else if(5 < _domain.length && _domain.length <= 10){\r\n            price = 2 ether;\r\n        } else if(_domain.length > 10){\r\n            price = 1 ether;\r\n        } \r\n        else {\r\n            revert();\r\n        }\r\n        return price;\r\n    }\r\n\r\n    function getDomainStartsDate(bytes _domain) public view returns(uint){\r\n        return domains.getDomainStartsDate(_domain);\r\n    }\r\n    \r\n    function getDomainExpirationDate(bytes _domain) public view returns(uint){\r\n        return domains.getDomainExpirationDate(_domain);\r\n    }\r\n    \r\n    // function getOwnerDomains(address _owner) public view returns(DDNSRegisterer.Domain[]){\r\n    //     return domains.ownersInfo[_owner];\r\n    // }\r\n\r\n    // function geteDomainInfo(bytes _domain) public view returns(DDNSRegisterer.Domain) {\r\n    //     return domains.domainsInfo[_domain];\r\n    // }\r\n    \r\n    // function getAllReciepts() public view returns(Receipt[]){\r\n    //     return receipts[msg.sender];\r\n    // }\r\n}",
  "sourcePath": "C:\\Users\\grozd\\Desktop\\SolidityCourse\\10. Final-Project-Live-Defense\\DDNS\\contracts\\DDNS.sol",
  "compiler": {
    "name": "solc",
    "version": "0.4.19+commit.c4cbbb05.Emscripten.clang"
  },
  "schemaVersion": "2.0.0",
  "updatedAt": "2018-03-29T05:58:49.643Z"
}