{
  "contractName": "DDNSRegisterer",
  "abi": [
    {
      "constant": false,
      "inputs": [
        {
          "name": "self",
          "type": "DDNSRegisterer.DomainsData storage"
        },
        {
          "name": "_domain",
          "type": "bytes"
        },
        {
          "name": "_ip",
          "type": "bytes4"
        },
        {
          "name": "_starts",
          "type": "uint256"
        },
        {
          "name": "_expires",
          "type": "uint256"
        }
      ],
      "name": "register",
      "outputs": [
        {
          "name": "",
          "type": "bool"
        }
      ],
      "payable": false,
      "stateMutability": "nonpayable",
      "type": "function"
    },
    {
      "constant": false,
      "inputs": [
        {
          "name": "self",
          "type": "DDNSRegisterer.DomainsData storage"
        },
        {
          "name": "_domain",
          "type": "bytes"
        },
        {
          "name": "_newIp",
          "type": "bytes4"
        }
      ],
      "name": "edit",
      "outputs": [],
      "payable": false,
      "stateMutability": "nonpayable",
      "type": "function"
    },
    {
      "constant": false,
      "inputs": [
        {
          "name": "self",
          "type": "DDNSRegisterer.DomainsData storage"
        },
        {
          "name": "_domain",
          "type": "bytes"
        },
        {
          "name": "_newOwner",
          "type": "address"
        }
      ],
      "name": "transferDomain",
      "outputs": [],
      "payable": false,
      "stateMutability": "nonpayable",
      "type": "function"
    },
    {
      "constant": true,
      "inputs": [
        {
          "name": "self",
          "type": "DDNSRegisterer.DomainsData storage"
        },
        {
          "name": "_domain",
          "type": "bytes"
        }
      ],
      "name": "getIP",
      "outputs": [
        {
          "name": "",
          "type": "bytes4"
        }
      ],
      "payable": false,
      "stateMutability": "view",
      "type": "function"
    },
    {
      "constant": true,
      "inputs": [
        {
          "name": "self",
          "type": "DDNSRegisterer.DomainsData storage"
        },
        {
          "name": "_domain",
          "type": "bytes"
        }
      ],
      "name": "getDomainOwner",
      "outputs": [
        {
          "name": "",
          "type": "address"
        }
      ],
      "payable": false,
      "stateMutability": "view",
      "type": "function"
    },
    {
      "constant": true,
      "inputs": [
        {
          "name": "self",
          "type": "DDNSRegisterer.DomainsData storage"
        },
        {
          "name": "_domain",
          "type": "bytes"
        }
      ],
      "name": "getDomainStartsDate",
      "outputs": [
        {
          "name": "",
          "type": "uint256"
        }
      ],
      "payable": false,
      "stateMutability": "view",
      "type": "function"
    },
    {
      "constant": true,
      "inputs": [
        {
          "name": "self",
          "type": "DDNSRegisterer.DomainsData storage"
        },
        {
          "name": "_domain",
          "type": "bytes"
        }
      ],
      "name": "getDomainExpirationDate",
      "outputs": [
        {
          "name": "",
          "type": "uint256"
        }
      ],
      "payable": false,
      "stateMutability": "view",
      "type": "function"
    }
  ],
  "bytecode": "0x6060604052341561000f57600080fd5b610cf88061001e6000396000f300606060405260043610610083576000357c0100000000000000000000000000000000000000000000000000000000900463ffffffff1680636ba0096014610088578063769bced2146101025780637a0095bf146101855780637d781bb0146101f4578063878646f614610263578063a9c73ab2146102fe578063eccb8f5e146103ab575b600080fd5b610100600480803590602001909190803590602001908201803590602001908080601f0160208091040260200160405190810160405280939291908181526020018383808284378201915050505050509190803573ffffffffffffffffffffffffffffffffffffffff16906020019091905050610458565b005b610183600480803590602001909190803590602001908201803590602001908080601f016020809104026020016040519081016040528093929190818152602001838380828437820191505050505050919080357bffffffffffffffffffffffffffffffffffffffffffffffffffffffff191690602001909190505061050c565b005b6101de600480803590602001909190803590602001908201803590602001908080601f016020809104026020016040519081016040528093929190818152602001838380828437820191505050505050919050506105ba565b6040518082815260200191505060405180910390f35b61024d600480803590602001909190803590602001908201803590602001908080601f01602080910402602001604051908101604052809392919081815260200183838082843782019150505050505091905050610635565b6040518082815260200191505060405180910390f35b6102bc600480803590602001909190803590602001908201803590602001908080601f016020809104026020016040519081016040528093929190818152602001838380828437820191505050505050919050506106b0565b604051808273ffffffffffffffffffffffffffffffffffffffff1673ffffffffffffffffffffffffffffffffffffffff16815260200191505060405180910390f35b610357600480803590602001909190803590602001908201803590602001908080601f0160208091040260200160405190810160405280939291908181526020018383808284378201915050505050509190505061074b565b60405180827bffffffffffffffffffffffffffffffffffffffffffffffffffffffff19167bffffffffffffffffffffffffffffffffffffffffffffffffffffffff1916815260200191505060405180910390f35b61043e600480803590602001909190803590602001908201803590602001908080601f016020809104026020016040519081016040528093929190818152602001838380828437820191505050505050919080357bffffffffffffffffffffffffffffffffffffffffffffffffffffffff19169060200190919080359060200190919080359060200190919050506107ef565b604051808215151515815260200191505060405180910390f35b8083600001836040518082805190602001908083835b602083101515610493578051825260208201915060208101905060208303925061046e565b6001836020036101000a038019825116818451168082178552505050505050905001915050908152602001604051809103902060010160046101000a81548173ffffffffffffffffffffffffffffffffffffffff021916908373ffffffffffffffffffffffffffffffffffffffff160217905550505050565b8083600001836040518082805190602001908083835b6020831015156105475780518252602082019150602081019050602083039250610522565b6001836020036101000a038019825116818451168082178552505050505050905001915050908152602001604051809103902060010160006101000a81548163ffffffff02191690837c010000000000000000000000000000000000000000000000000000000090040217905550505050565b600082600001826040518082805190602001908083835b6020831015156105f657805182526020820191506020810190506020830392506105d1565b6001836020036101000a038019825116818451168082178552505050505050905001915050908152602001604051809103902060030154905092915050565b600082600001826040518082805190602001908083835b602083101515610671578051825260208201915060208101905060208303925061064c565b6001836020036101000a038019825116818451168082178552505050505050905001915050908152602001604051809103902060020154905092915050565b600082600001826040518082805190602001908083835b6020831015156106ec57805182526020820191506020810190506020830392506106c7565b6001836020036101000a038019825116818451168082178552505050505050905001915050908152602001604051809103902060010160049054906101000a900473ffffffffffffffffffffffffffffffffffffffff16905092915050565b600082600001826040518082805190602001908083835b6020831015156107875780518252602082019150602081019050602083039250610762565b6001836020036101000a038019825116818451168082178552505050505050905001915050908152602001604051809103902060010160009054906101000a90047c010000000000000000000000000000000000000000000000000000000002905092915050565b60006107f9610ab1565b60a060405190810160405280878152602001867bffffffffffffffffffffffffffffffffffffffffffffffffffffffff191681526020013373ffffffffffffffffffffffffffffffffffffffff1681526020018581526020018481525090508660010160003373ffffffffffffffffffffffffffffffffffffffff1673ffffffffffffffffffffffffffffffffffffffff16815260200190815260200160002080548060010182816108ab9190610b1c565b9160005260206000209060040201600083909190915060008201518160000190805190602001906108dd929190610b4e565b5060208201518160010160006101000a81548163ffffffff02191690837c01000000000000000000000000000000000000000000000000000000009004021790555060408201518160010160046101000a81548173ffffffffffffffffffffffffffffffffffffffff021916908373ffffffffffffffffffffffffffffffffffffffff16021790555060608201518160020155608082015181600301555050508087600001876040518082805190602001908083835b6020831015156109b85780518252602082019150602081019050602083039250610993565b6001836020036101000a03801982511681845116808217855250505050505090500191505090815260200160405180910390206000820151816000019080519060200190610a07929190610b4e565b5060208201518160010160006101000a81548163ffffffff02191690837c01000000000000000000000000000000000000000000000000000000009004021790555060408201518160010160046101000a81548173ffffffffffffffffffffffffffffffffffffffff021916908373ffffffffffffffffffffffffffffffffffffffff16021790555060608201518160020155608082015181600301559050505095945050505050565b60a060405190810160405280610ac5610bce565b815260200160007bffffffffffffffffffffffffffffffffffffffffffffffffffffffff19168152602001600073ffffffffffffffffffffffffffffffffffffffff16815260200160008152602001600081525090565b815481835581811511610b4957600402816004028360005260206000209182019101610b489190610be2565b5b505050565b828054600181600116156101000203166002900490600052602060002090601f016020900481019282601f10610b8f57805160ff1916838001178555610bbd565b82800160010185558215610bbd579182015b82811115610bbc578251825591602001919060010190610ba1565b5b509050610bca9190610c5f565b5090565b602060405190810160405280600081525090565b610c5c91905b80821115610c585760008082016000610c019190610c84565b6001820160006101000a81549063ffffffff02191690556001820160046101000a81549073ffffffffffffffffffffffffffffffffffffffff02191690556002820160009055600382016000905550600401610be8565b5090565b90565b610c8191905b80821115610c7d576000816000905550600101610c65565b5090565b90565b50805460018160011615610100020316600290046000825580601f10610caa5750610cc9565b601f016020900490600052602060002090810190610cc89190610c5f565b5b505600a165627a7a7230582006369eda752632ad24027f5523986aadd05f95ae3c38884230810584dbe460bf0029",
  "source": "pragma solidity 0.4.19;\r\n\r\nlibrary DDNSRegisterer {\r\n    \r\n    struct Domain{\r\n        bytes name;\r\n        bytes4 ip;\r\n        address owner;\r\n        uint starts;\r\n        uint expires;\r\n    }\r\n    \r\n    struct DomainsData{\r\n        mapping(bytes => Domain) domainsInfo;\r\n        mapping(address => Domain[]) ownersInfo;\r\n    }\r\n    \r\n    function register(DomainsData storage self, bytes _domain, bytes4 _ip, uint _starts, uint _expires) public returns(bool) {\r\n        Domain memory domainObj = Domain({name: _domain, ip: _ip, owner: msg.sender, starts: _starts, expires:_expires });\r\n        self.ownersInfo[msg.sender].push(domainObj);\r\n        self.domainsInfo[_domain] = domainObj;\r\n    }\r\n    \r\n    function edit(DomainsData storage self, bytes _domain, bytes4 _newIp) public {\r\n        self.domainsInfo[_domain].ip = _newIp;\r\n    }\r\n    \r\n    function transferDomain(DomainsData storage self, bytes _domain, address _newOwner) public {\r\n        self.domainsInfo[_domain].owner = _newOwner;\r\n    }\r\n    \r\n    function getIP(DomainsData storage self, bytes _domain) public view returns (bytes4) {\r\n        return self.domainsInfo[_domain].ip;\r\n    }\r\n    \r\n    function getDomainOwner(DomainsData storage self, bytes _domain) public view returns(address) {\r\n        return self.domainsInfo[_domain].owner;\r\n    }\r\n    \r\n    function getDomainStartsDate(DomainsData storage self, bytes _domain) public view returns(uint){\r\n        return self.domainsInfo[_domain].starts;\r\n    }\r\n    \r\n    function getDomainExpirationDate(DomainsData storage self, bytes _domain) public view returns(uint){\r\n        return self.domainsInfo[_domain].expires;\r\n    }\r\n}\r\n",
  "sourcePath": "C:\\Users\\grozdanov\\Desktop\\sol\\SolidityCourse\\10. Final-Project-Live-Defense\\DDNS\\contracts\\DDNSRegisterer.sol",
  "compiler": {
    "name": "solc",
    "version": "0.4.19+commit.c4cbbb05.Emscripten.clang"
  },
  "schemaVersion": "2.0.0",
  "updatedAt": "2018-03-29T07:42:27.946Z"
}